{
  "contractName": "MultisigWallet",
  "abi": [
    {
      "inputs": [],
      "stateMutability": "nonpayable",
      "type": "constructor"
    },
    {
      "anonymous": false,
      "inputs": [
        {
          "indexed": false,
          "internalType": "address",
          "name": "newOwner",
          "type": "address"
        }
      ],
      "name": "AddOwner",
      "type": "event"
    },
    {
      "anonymous": false,
      "inputs": [
        {
          "indexed": false,
          "internalType": "uint256",
          "name": "transactionIndex",
          "type": "uint256"
        },
        {
          "indexed": false,
          "internalType": "address",
          "name": "owner",
          "type": "address"
        }
      ],
      "name": "ConfirmTransaction",
      "type": "event"
    },
    {
      "anonymous": false,
      "inputs": [
        {
          "indexed": false,
          "internalType": "uint256",
          "name": "transactionInxex",
          "type": "uint256"
        },
        {
          "indexed": false,
          "internalType": "address",
          "name": "owner",
          "type": "address"
        }
      ],
      "name": "Executetranaction",
      "type": "event"
    },
    {
      "anonymous": false,
      "inputs": [
        {
          "indexed": false,
          "internalType": "uint256",
          "name": "transactionIndex",
          "type": "uint256"
        },
        {
          "indexed": false,
          "internalType": "address",
          "name": "owner",
          "type": "address"
        }
      ],
      "name": "RemoveConfirmation",
      "type": "event"
    },
    {
      "anonymous": false,
      "inputs": [
        {
          "indexed": false,
          "internalType": "address",
          "name": "owner",
          "type": "address"
        }
      ],
      "name": "RemoveOwner",
      "type": "event"
    },
    {
      "anonymous": false,
      "inputs": [
        {
          "indexed": false,
          "internalType": "uint256",
          "name": "amount",
          "type": "uint256"
        },
        {
          "indexed": false,
          "internalType": "address",
          "name": "owner",
          "type": "address"
        },
        {
          "indexed": false,
          "internalType": "uint256",
          "name": "transactionIndex",
          "type": "uint256"
        }
      ],
      "name": "SubmitTransaction",
      "type": "event"
    },
    {
      "anonymous": false,
      "inputs": [
        {
          "indexed": false,
          "internalType": "address",
          "name": "newAuthority",
          "type": "address"
        }
      ],
      "name": "TransferAuthority",
      "type": "event"
    },
    {
      "inputs": [
        {
          "internalType": "address",
          "name": "_newOwner",
          "type": "address"
        }
      ],
      "name": "addOwner",
      "outputs": [],
      "stateMutability": "nonpayable",
      "type": "function"
    },
    {
      "inputs": [],
      "name": "confirmationsRequired",
      "outputs": [
        {
          "internalType": "uint256",
          "name": "",
          "type": "uint256"
        }
      ],
      "stateMutability": "view",
      "type": "function",
      "constant": true
    },
    {
      "inputs": [],
      "name": "maxBlockLength",
      "outputs": [
        {
          "internalType": "uint256",
          "name": "",
          "type": "uint256"
        }
      ],
      "stateMutability": "view",
      "type": "function",
      "constant": true
    },
    {
      "inputs": [],
      "name": "numberOfOwners",
      "outputs": [
        {
          "internalType": "uint256",
          "name": "",
          "type": "uint256"
        }
      ],
      "stateMutability": "view",
      "type": "function",
      "constant": true
    },
    {
      "inputs": [
        {
          "internalType": "address",
          "name": "_owner",
          "type": "address"
        }
      ],
      "name": "removeOwner",
      "outputs": [],
      "stateMutability": "nonpayable",
      "type": "function"
    },
    {
      "inputs": [
        {
          "internalType": "uint256",
          "name": "_newBlockLength",
          "type": "uint256"
        }
      ],
      "name": "setMaxBlockLength",
      "outputs": [],
      "stateMutability": "nonpayable",
      "type": "function"
    },
    {
      "inputs": [
        {
          "internalType": "address",
          "name": "_newAuthority",
          "type": "address"
        }
      ],
      "name": "transferAuthority",
      "outputs": [],
      "stateMutability": "nonpayable",
      "type": "function"
    },
    {
      "inputs": [],
      "name": "walletAuthority",
      "outputs": [
        {
          "internalType": "address",
          "name": "",
          "type": "address"
        }
      ],
      "stateMutability": "view",
      "type": "function",
      "constant": true
    },
    {
      "inputs": [],
      "name": "getBalance",
      "outputs": [
        {
          "internalType": "uint256",
          "name": "",
          "type": "uint256"
        }
      ],
      "stateMutability": "view",
      "type": "function",
      "constant": true
    },
    {
      "inputs": [
        {
          "internalType": "uint256",
          "name": "_amount",
          "type": "uint256"
        },
        {
          "internalType": "address",
          "name": "_owner",
          "type": "address"
        }
      ],
      "name": "submitTransaction",
      "outputs": [
        {
          "internalType": "uint256",
          "name": "",
          "type": "uint256"
        }
      ],
      "stateMutability": "nonpayable",
      "type": "function"
    },
    {
      "inputs": [
        {
          "internalType": "uint256",
          "name": "_transactionIndex",
          "type": "uint256"
        }
      ],
      "name": "confirmTransaction",
      "outputs": [],
      "stateMutability": "nonpayable",
      "type": "function"
    },
    {
      "inputs": [
        {
          "internalType": "uint256",
          "name": "_transactionIndex",
          "type": "uint256"
        }
      ],
      "name": "executeTransaction",
      "outputs": [],
      "stateMutability": "payable",
      "type": "function",
      "payable": true
    },
    {
      "inputs": [
        {
          "internalType": "uint256",
          "name": "_transactionIndex",
          "type": "uint256"
        }
      ],
      "name": "removeConfirmation",
      "outputs": [],
      "stateMutability": "nonpayable",
      "type": "function"
    }
  ],
  "bytecode": "0x608060405234801561001057600080fd5b50336000806101000a81548173ffffffffffffffffffffffffffffffffffffffff021916908373ffffffffffffffffffffffffffffffffffffffff16021790555060006001819055506032600481905550611c36806100706000396000f3fe6080604052600436106100c25760003560e01c806397a5724a1161007f578063d2794e8311610059578063d2794e8314610240578063e3782c141461027d578063e8b2c243146102a6578063ee22610b146102d1576100c2565b806397a5724a146101c3578063c01a8c84146101ee578063c70c612e14610217576100c2565b806312065fe0146100c7578063173825d9146100f25780633078db6c1461011b5780635736e2d2146101445780637065cb481461016f57806393fd184414610198575b600080fd5b3480156100d357600080fd5b506100dc6102ed565b6040516100e99190611323565b60405180910390f35b3480156100fe57600080fd5b50610119600480360381019061011491906113a1565b6102f5565b005b34801561012757600080fd5b50610142600480360381019061013d91906113a1565b610532565b005b34801561015057600080fd5b5061015961063a565b6040516101669190611323565b60405180910390f35b34801561017b57600080fd5b50610196600480360381019061019191906113a1565b610640565b005b3480156101a457600080fd5b506101ad61087e565b6040516101ba9190611323565b60405180910390f35b3480156101cf57600080fd5b506101d8610884565b6040516101e591906113dd565b60405180910390f35b3480156101fa57600080fd5b5061021560048036038101906102109190611424565b6108a8565b005b34801561022357600080fd5b5061023e60048036038101906102399190611424565b610aec565b005b34801561024c57600080fd5b5061026760048036038101906102629190611451565b610b84565b6040516102749190611323565b60405180910390f35b34801561028957600080fd5b506102a4600480360381019061029f9190611424565b610d54565b005b3480156102b257600080fd5b506102bb610ffe565b6040516102c89190611323565b60405180910390f35b6102eb60048036038101906102e69190611424565b611004565b005b600047905090565b60008054906101000a900473ffffffffffffffffffffffffffffffffffffffff1673ffffffffffffffffffffffffffffffffffffffff163373ffffffffffffffffffffffffffffffffffffffff1614610383576040517f08c379a000000000000000000000000000000000000000000000000000000000815260040161037a906114ee565b60405180910390fd5b600073ffffffffffffffffffffffffffffffffffffffff168173ffffffffffffffffffffffffffffffffffffffff1614156103f3576040517f08c379a00000000000000000000000000000000000000000000000000000000081526004016103ea9061155a565b60405180910390fd5b600260008273ffffffffffffffffffffffffffffffffffffffff1673ffffffffffffffffffffffffffffffffffffffff16815260200190815260200160002060009054906101000a900460ff1661047f576040517f08c379a0000000000000000000000000000000000000000000000000000000008152600401610476906115c6565b60405180910390fd5b6000600260008373ffffffffffffffffffffffffffffffffffffffff1673ffffffffffffffffffffffffffffffffffffffff16815260200190815260200160002060006101000a81548160ff02191690831515021790555060018060008282546104e99190611615565b925050819055506104f86112e7565b7fac6e8398676cf37429d530b81144d7079e99f4fe9d28b0d88c4a749ceccbe8cd8160405161052791906113dd565b60405180910390a150565b60008054906101000a900473ffffffffffffffffffffffffffffffffffffffff1673ffffffffffffffffffffffffffffffffffffffff163373ffffffffffffffffffffffffffffffffffffffff16146105c0576040517f08c379a00000000000000000000000000000000000000000000000000000000081526004016105b7906114ee565b60405180910390fd5b806000806101000a81548173ffffffffffffffffffffffffffffffffffffffff021916908373ffffffffffffffffffffffffffffffffffffffff1602179055507fbf3a50b61287462a7a0d6586f5e62a7973d2d0e3a13c676db42bcd2efacbf78d8160405161062f91906113dd565b60405180910390a150565b60045481565b60008054906101000a900473ffffffffffffffffffffffffffffffffffffffff1673ffffffffffffffffffffffffffffffffffffffff163373ffffffffffffffffffffffffffffffffffffffff16146106ce576040517f08c379a00000000000000000000000000000000000000000000000000000000081526004016106c5906114ee565b60405180910390fd5b600073ffffffffffffffffffffffffffffffffffffffff168173ffffffffffffffffffffffffffffffffffffffff16141561073e576040517f08c379a00000000000000000000000000000000000000000000000000000000081526004016107359061155a565b60405180910390fd5b600260008273ffffffffffffffffffffffffffffffffffffffff1673ffffffffffffffffffffffffffffffffffffffff16815260200190815260200160002060009054906101000a900460ff16156107cb576040517f08c379a00000000000000000000000000000000000000000000000000000000081526004016107c290611695565b60405180910390fd5b6001600260008373ffffffffffffffffffffffffffffffffffffffff1673ffffffffffffffffffffffffffffffffffffffff16815260200190815260200160002060006101000a81548160ff021916908315150217905550600180600082825461083591906116b5565b925050819055506108446112e7565b7fac1e9ef41b54c676ccf449d83ae6f2624bcdce8f5b93a6b48ce95874c332693d8160405161087391906113dd565b60405180910390a150565b60015481565b60008054906101000a900473ffffffffffffffffffffffffffffffffffffffff1681565b600260003373ffffffffffffffffffffffffffffffffffffffff1673ffffffffffffffffffffffffffffffffffffffff16815260200190815260200160002060009054906101000a900460ff16610934576040517f08c379a000000000000000000000000000000000000000000000000000000000815260040161092b9061177d565b60405180910390fd5b806007805490501161097b576040517f08c379a0000000000000000000000000000000000000000000000000000000008152600401610972906117e9565b60405180910390fd5b6006600082815260200190815260200160002060003373ffffffffffffffffffffffffffffffffffffffff1673ffffffffffffffffffffffffffffffffffffffff16815260200190815260200160002060009054906101000a900460ff1615610a19576040517f08c379a0000000000000000000000000000000000000000000000000000000008152600401610a109061187b565b60405180910390fd5b600060078281548110610a2f57610a2e61189b565b5b906000526020600020906005020190508060020160009054906101000a900460ff1615610a91576040517f08c379a0000000000000000000000000000000000000000000000000000000008152600401610a8890611916565b60405180910390fd5b6001816003016000828254610aa691906116b5565b925050819055507fcb0f87c749501e9cd0f274dc3a2c62b91b6a4f2909001c6c13663072b739d3d660055433604051610ae0929190611936565b60405180910390a15050565b60008054906101000a900473ffffffffffffffffffffffffffffffffffffffff1673ffffffffffffffffffffffffffffffffffffffff163373ffffffffffffffffffffffffffffffffffffffff1614610b7a576040517f08c379a0000000000000000000000000000000000000000000000000000000008152600401610b71906114ee565b60405180910390fd5b8060048190555050565b6000600260003373ffffffffffffffffffffffffffffffffffffffff1673ffffffffffffffffffffffffffffffffffffffff16815260200190815260200160002060009054906101000a900460ff16610c12576040517f08c379a0000000000000000000000000000000000000000000000000000000008152600401610c099061177d565b60405180910390fd5b6000600780549050905060076040518060a001604052808573ffffffffffffffffffffffffffffffffffffffff1681526020018681526020016000151581526020016000815260200143815250908060018154018082558091505060019003906000526020600020906005020160009091909190915060008201518160000160006101000a81548173ffffffffffffffffffffffffffffffffffffffff021916908373ffffffffffffffffffffffffffffffffffffffff1602179055506020820151816001015560408201518160020160006101000a81548160ff021916908315150217905550606082015181600301556080820151816004015550507fa1d8d22248c0cdfbdc672d2fb4e4dfde14a9284ed7925d17c2c252b4bfb8b464848483604051610d429392919061195f565b60405180910390a18091505092915050565b600260003373ffffffffffffffffffffffffffffffffffffffff1673ffffffffffffffffffffffffffffffffffffffff16815260200190815260200160002060009054906101000a900460ff16610de0576040517f08c379a0000000000000000000000000000000000000000000000000000000008152600401610dd79061177d565b60405180910390fd5b8060078054905011610e27576040517f08c379a0000000000000000000000000000000000000000000000000000000008152600401610e1e906117e9565b60405180910390fd5b6006600082815260200190815260200160002060003373ffffffffffffffffffffffffffffffffffffffff1673ffffffffffffffffffffffffffffffffffffffff16815260200190815260200160002060009054906101000a900460ff16610ec4576040517f08c379a0000000000000000000000000000000000000000000000000000000008152600401610ebb90611a08565b60405180910390fd5b600060078281548110610eda57610ed961189b565b5b906000526020600020906005020190508060020160009054906101000a900460ff1615610f3c576040517f08c379a0000000000000000000000000000000000000000000000000000000008152600401610f3390611916565b60405180910390fd5b6001816003016000828254610f519190611615565b9250508190555060006006600084815260200190815260200160002060003373ffffffffffffffffffffffffffffffffffffffff1673ffffffffffffffffffffffffffffffffffffffff16815260200190815260200160002060006101000a81548160ff0219169083151502179055507fc2f7b21d5ae4a7964e77222fb33c68b307c65ce7a910503d131d8fc9db8a56e48233604051610ff2929190611936565b60405180910390a15050565b60035481565b600260003373ffffffffffffffffffffffffffffffffffffffff1673ffffffffffffffffffffffffffffffffffffffff16815260200190815260200160002060009054906101000a900460ff16611090576040517f08c379a00000000000000000000000000000000000000000000000000000000081526004016110879061177d565b60405180910390fd5b80600780549050116110d7576040517f08c379a00000000000000000000000000000000000000000000000000000000081526004016110ce906117e9565b60405180910390fd5b6000600782815481106110ed576110ec61189b565b5b906000526020600020906005020190508060020160009054906101000a900460ff161561114f576040517f08c379a000000000000000000000000000000000000000000000000000000000815260040161114690611916565b60405180910390fd5b60035481600301541015611198576040517f08c379a000000000000000000000000000000000000000000000000000000000815260040161118f90611a74565b60405180910390fd5b60018160020160006101000a81548160ff02191690831515021790555060008160000160009054906101000a900473ffffffffffffffffffffffffffffffffffffffff1673ffffffffffffffffffffffffffffffffffffffff16346040516111ff90611ac5565b60006040518083038185875af1925050503d806000811461123c576040519150601f19603f3d011682016040523d82523d6000602084013e611241565b606091505b5050905080611285576040517f08c379a000000000000000000000000000000000000000000000000000000000815260040161127c90611b26565b60405180910390fd5b7fde4425918eca0a5b9b8f1ae1452ba4b279f804e5c455feb8791daef25ca37a26838360000160009054906101000a900473ffffffffffffffffffffffffffffffffffffffff166040516112da929190611936565b60405180910390a1505050565b600a60066001546112f89190611b46565b6113029190611bcf565b600381905550565b6000819050919050565b61131d8161130a565b82525050565b60006020820190506113386000830184611314565b92915050565b600080fd5b600073ffffffffffffffffffffffffffffffffffffffff82169050919050565b600061136e82611343565b9050919050565b61137e81611363565b811461138957600080fd5b50565b60008135905061139b81611375565b92915050565b6000602082840312156113b7576113b661133e565b5b60006113c58482850161138c565b91505092915050565b6113d781611363565b82525050565b60006020820190506113f260008301846113ce565b92915050565b6114018161130a565b811461140c57600080fd5b50565b60008135905061141e816113f8565b92915050565b60006020828403121561143a5761143961133e565b5b60006114488482850161140f565b91505092915050565b600080604083850312156114685761146761133e565b5b60006114768582860161140f565b92505060206114878582860161138c565b9150509250929050565b600082825260208201905092915050565b7f4f6e6c7920417574686f72697479000000000000000000000000000000000000600082015250565b60006114d8600e83611491565b91506114e3826114a2565b602082019050919050565b60006020820190508181036000830152611507816114cb565b9050919050565b7f496e76616c696420416464726573730000000000000000000000000000000000600082015250565b6000611544600f83611491565b915061154f8261150e565b602082019050919050565b6000602082019050818103600083015261157381611537565b9050919050565b7f4e6f7420616e204f776e65720000000000000000000000000000000000000000600082015250565b60006115b0600c83611491565b91506115bb8261157a565b602082019050919050565b600060208201905081810360008301526115df816115a3565b9050919050565b7f4e487b7100000000000000000000000000000000000000000000000000000000600052601160045260246000fd5b60006116208261130a565b915061162b8361130a565b92508282101561163e5761163d6115e6565b5b828203905092915050565b7f416c72656164792061204f776e65720000000000000000000000000000000000600082015250565b600061167f600f83611491565b915061168a82611649565b602082019050919050565b600060208201905081810360008301526116ae81611672565b9050919050565b60006116c08261130a565b91506116cb8361130a565b9250827fffffffffffffffffffffffffffffffffffffffffffffffffffffffffffffffff03821115611700576116ff6115e6565b5b828201905092915050565b7f4f6e6c79204f776e6572732063616e207375626d69742061207472616e73616360008201527f74696f6e00000000000000000000000000000000000000000000000000000000602082015250565b6000611767602483611491565b91506117728261170b565b604082019050919050565b600060208201905081810360008301526117968161175a565b9050919050565b7f5472616e73616374696f6e20646f6573206e6f74206578697374000000000000600082015250565b60006117d3601a83611491565b91506117de8261179d565b602082019050919050565b60006020820190508181036000830152611802816117c6565b9050919050565b7f5468697320616464726573732068617320616c726561647920636f6e6669726d60008201527f656420746865207472616e73616374696f6e0000000000000000000000000000602082015250565b6000611865603283611491565b915061187082611809565b604082019050919050565b6000602082019050818103600083015261189481611858565b9050919050565b7f4e487b7100000000000000000000000000000000000000000000000000000000600052603260045260246000fd5b7f5472616e73616374696f6e20697320616c726561647920457865637574656400600082015250565b6000611900601f83611491565b915061190b826118ca565b602082019050919050565b6000602082019050818103600083015261192f816118f3565b9050919050565b600060408201905061194b6000830185611314565b61195860208301846113ce565b9392505050565b60006060820190506119746000830186611314565b61198160208301856113ce565b61198e6040830184611314565b949350505050565b7f54686973206164647265737320686173206e6f7420636f6e6669726d6564207460008201527f6865207472616e73616374696f6e000000000000000000000000000000000000602082015250565b60006119f2602e83611491565b91506119fd82611996565b604082019050919050565b60006020820190508181036000830152611a21816119e5565b9050919050565b7f4e6f7420656e6f75676820636f6e6669726d6174696f6e730000000000000000600082015250565b6000611a5e601883611491565b9150611a6982611a28565b602082019050919050565b60006020820190508181036000830152611a8d81611a51565b9050919050565b600081905092915050565b50565b6000611aaf600083611a94565b9150611aba82611a9f565b600082019050919050565b6000611ad082611aa2565b9150819050919050565b7f5472616e73616374696f6e204661696c65640000000000000000000000000000600082015250565b6000611b10601283611491565b9150611b1b82611ada565b602082019050919050565b60006020820190508181036000830152611b3f81611b03565b9050919050565b6000611b518261130a565b9150611b5c8361130a565b9250817fffffffffffffffffffffffffffffffffffffffffffffffffffffffffffffffff0483118215151615611b9557611b946115e6565b5b828202905092915050565b7f4e487b7100000000000000000000000000000000000000000000000000000000600052601260045260246000fd5b6000611bda8261130a565b9150611be58361130a565b925082611bf557611bf4611ba0565b5b82820490509291505056fea2646970667358221220510c7ee71c4f6c57175176706cfb7c31b703543160ce03570f500ea6992ea10a64736f6c634300080a0033",
  "immutableReferences": {},
  "source": "// SPDX-License-Identifier: MIT\npragma solidity >=0.4.22 <0.9.0;\n\nimport \"./WalletAuthority.sol\";\n\n// 1. Write a scalable multi-signature wallet contract, which requires a minimum of 60% authorisation\n// by the signatory wallets to perform a transaction.\n\n// 2. Write an access registry contract that stores the signatories of this multi-sig wallet by\n//  address. This access registry contract will have its own admin. Further, the access registry co\n// ntract must be capable of adding, revoking, renouncing, and transfer of signatory functionalities.\n\ncontract MultisigWallet is WalletAuthority {\n    event SubmitTransaction(\n        uint256 amount,\n        address owner,\n        uint256 transactionIndex\n    );\n    event ConfirmTransaction(uint256 transactionIndex, address owner);\n    event Executetranaction(uint256 transactionInxex, address owner);\n    event RemoveConfirmation(uint256 transactionIndex, address owner);\n\n    uint256 transactionsIndex;\n    mapping(uint256 => mapping(address => bool)) isConfirmed;\n\n    struct Transaction {\n        address owner;\n        uint256 amount;\n        bool isExecuted;\n        uint256 numOfConfirmations;\n        uint256 blockNumber;\n    }\n    Transaction[] transactions;\n\n    constructor() {\n        walletAuthority = msg.sender;\n        numberOfOwners = 0;\n        maxBlockLength = 50;\n    }\n\n    modifier onlyOwner() {\n        require(isOwner[msg.sender], \"Only Owners can submit a transaction\");\n        _;\n    }\n\n    function getBalance() public view returns (uint256) {\n        return address(this).balance;\n    }\n\n    function submitTransaction(uint256 _amount, address _owner)\n        public\n        onlyOwner\n        returns (uint256)\n    {\n        uint256 index = transactions.length;\n        transactions.push(\n            Transaction({\n                owner: _owner,\n                amount: _amount,\n                isExecuted: false,\n                numOfConfirmations: 0,\n                blockNumber: block.number\n            })\n        );\n        emit SubmitTransaction(_amount, _owner, index);\n        return index;\n    }\n\n    function confirmTransaction(uint256 _transactionIndex) public onlyOwner {\n        require(\n            transactions.length > _transactionIndex,\n            \"Transaction does not exist\"\n        );\n        require(\n            !isConfirmed[_transactionIndex][msg.sender],\n            \"This address has already confirmed the transaction\"\n        );\n        Transaction storage transaction = transactions[_transactionIndex];\n        require(!transaction.isExecuted, \"Transaction is already Executed\");\n        transaction.numOfConfirmations += 1;\n        emit ConfirmTransaction(transactionsIndex, msg.sender);\n    }\n\n    function executeTransaction(uint256 _transactionIndex)\n        public\n        payable\n        onlyOwner\n    {\n        require(\n            transactions.length > _transactionIndex,\n            \"Transaction does not exist\"\n        );\n        Transaction storage transaction = transactions[_transactionIndex];\n        // require(\n        //     (transaction.blockNumber - block.number) <= maxBlockLength,\n        //     \"Transaction is Closed\"\n        // );\n        require(!transaction.isExecuted, \"Transaction is already Executed\");\n        require(\n            transaction.numOfConfirmations >= confirmationsRequired,\n            \"Not enough confirmations\"\n        );\n        transaction.isExecuted = true;\n        (bool success, ) = transaction.owner.call{value: msg.value}(\"\");\n        require(success, \"Transaction Failed\");\n        emit Executetranaction(_transactionIndex, transaction.owner);\n    }\n\n    function removeConfirmation(uint256 _transactionIndex) public onlyOwner {\n        require(\n            transactions.length > _transactionIndex,\n            \"Transaction does not exist\"\n        );\n        require(\n            isConfirmed[_transactionIndex][msg.sender],\n            \"This address has not confirmed the transaction\"\n        );\n        Transaction storage transaction = transactions[_transactionIndex];\n        require(!transaction.isExecuted, \"Transaction is already Executed\");\n        transaction.numOfConfirmations -= 1;\n        isConfirmed[_transactionIndex][msg.sender] = false;\n        emit RemoveConfirmation(_transactionIndex, msg.sender);\n    }\n}\n",
  "sourcePath": "/home/ashish/projects/multisig_react/contracts/MultisigWallet.sol",
  "compiler": {
    "name": "solc",
    "version": "0.8.10+commit.fc410830.Emscripten.clang"
  },
  "schemaVersion": "3.4.4",
  "updatedAt": "2022-01-22T19:29:25.327Z",
  "networkType": "ethereum",
  "devdoc": {
    "kind": "dev",
    "methods": {},
    "version": 1
  },
  "userdoc": {
    "kind": "user",
    "methods": {},
    "version": 1
  }
}