{
  "contractName": "WalletAuthority",
  "abi": [
    {
      "anonymous": false,
      "inputs": [
        {
          "indexed": false,
          "internalType": "address",
          "name": "newOwner",
          "type": "address"
        }
      ],
      "name": "AddOwner",
      "type": "event"
    },
    {
      "anonymous": false,
      "inputs": [
        {
          "indexed": false,
          "internalType": "address",
          "name": "owner",
          "type": "address"
        }
      ],
      "name": "RemoveOwner",
      "type": "event"
    },
    {
      "anonymous": false,
      "inputs": [
        {
          "indexed": false,
          "internalType": "address",
          "name": "newAuthority",
          "type": "address"
        }
      ],
      "name": "TransferAuthority",
      "type": "event"
    },
    {
      "inputs": [],
      "name": "confirmationsRequired",
      "outputs": [
        {
          "internalType": "uint256",
          "name": "",
          "type": "uint256"
        }
      ],
      "stateMutability": "view",
      "type": "function"
    },
    {
      "inputs": [],
      "name": "maxBlockLength",
      "outputs": [
        {
          "internalType": "uint256",
          "name": "",
          "type": "uint256"
        }
      ],
      "stateMutability": "view",
      "type": "function"
    },
    {
      "inputs": [],
      "name": "numberOfOwners",
      "outputs": [
        {
          "internalType": "uint256",
          "name": "",
          "type": "uint256"
        }
      ],
      "stateMutability": "view",
      "type": "function"
    },
    {
      "inputs": [],
      "name": "walletAuthority",
      "outputs": [
        {
          "internalType": "address",
          "name": "",
          "type": "address"
        }
      ],
      "stateMutability": "view",
      "type": "function"
    },
    {
      "inputs": [
        {
          "internalType": "address",
          "name": "_newAuthority",
          "type": "address"
        }
      ],
      "name": "transferAuthority",
      "outputs": [],
      "stateMutability": "nonpayable",
      "type": "function"
    },
    {
      "inputs": [
        {
          "internalType": "address",
          "name": "_newOwner",
          "type": "address"
        }
      ],
      "name": "addOwner",
      "outputs": [],
      "stateMutability": "nonpayable",
      "type": "function"
    },
    {
      "inputs": [
        {
          "internalType": "uint256",
          "name": "_newBlockLength",
          "type": "uint256"
        }
      ],
      "name": "setMaxBlockLength",
      "outputs": [],
      "stateMutability": "nonpayable",
      "type": "function"
    },
    {
      "inputs": [
        {
          "internalType": "address",
          "name": "_owner",
          "type": "address"
        }
      ],
      "name": "removeOwner",
      "outputs": [],
      "stateMutability": "nonpayable",
      "type": "function"
    }
  ],
  "bytecode": "0x608060405234801561001057600080fd5b50610c9a806100206000396000f3fe608060405234801561001057600080fd5b50600436106100885760003560e01c806393fd18441161005b57806393fd1844146100ff57806397a5724a1461011d578063c70c612e1461013b578063e8b2c2431461015757610088565b8063173825d91461008d5780633078db6c146100a95780635736e2d2146100c55780637065cb48146100e3575b600080fd5b6100a760048036038101906100a2919061084c565b610175565b005b6100c360048036038101906100be919061084c565b6103b2565b005b6100cd6104ba565b6040516100da9190610892565b60405180910390f35b6100fd60048036038101906100f8919061084c565b6104c0565b005b6101076106fe565b6040516101149190610892565b60405180910390f35b610125610704565b60405161013291906108bc565b60405180910390f35b61015560048036038101906101509190610903565b610728565b005b61015f6107c0565b60405161016c9190610892565b60405180910390f35b60008054906101000a900473ffffffffffffffffffffffffffffffffffffffff1673ffffffffffffffffffffffffffffffffffffffff163373ffffffffffffffffffffffffffffffffffffffff1614610203576040517f08c379a00000000000000000000000000000000000000000000000000000000081526004016101fa9061098d565b60405180910390fd5b600073ffffffffffffffffffffffffffffffffffffffff168173ffffffffffffffffffffffffffffffffffffffff161415610273576040517f08c379a000000000000000000000000000000000000000000000000000000000815260040161026a906109f9565b60405180910390fd5b600260008273ffffffffffffffffffffffffffffffffffffffff1673ffffffffffffffffffffffffffffffffffffffff16815260200190815260200160002060009054906101000a900460ff166102ff576040517f08c379a00000000000000000000000000000000000000000000000000000000081526004016102f690610a65565b60405180910390fd5b6000600260008373ffffffffffffffffffffffffffffffffffffffff1673ffffffffffffffffffffffffffffffffffffffff16815260200190815260200160002060006101000a81548160ff02191690831515021790555060018060008282546103699190610ab4565b925050819055506103786107c6565b7fac6e8398676cf37429d530b81144d7079e99f4fe9d28b0d88c4a749ceccbe8cd816040516103a791906108bc565b60405180910390a150565b60008054906101000a900473ffffffffffffffffffffffffffffffffffffffff1673ffffffffffffffffffffffffffffffffffffffff163373ffffffffffffffffffffffffffffffffffffffff1614610440576040517f08c379a00000000000000000000000000000000000000000000000000000000081526004016104379061098d565b60405180910390fd5b806000806101000a81548173ffffffffffffffffffffffffffffffffffffffff021916908373ffffffffffffffffffffffffffffffffffffffff1602179055507fbf3a50b61287462a7a0d6586f5e62a7973d2d0e3a13c676db42bcd2efacbf78d816040516104af91906108bc565b60405180910390a150565b60045481565b60008054906101000a900473ffffffffffffffffffffffffffffffffffffffff1673ffffffffffffffffffffffffffffffffffffffff163373ffffffffffffffffffffffffffffffffffffffff161461054e576040517f08c379a00000000000000000000000000000000000000000000000000000000081526004016105459061098d565b60405180910390fd5b600073ffffffffffffffffffffffffffffffffffffffff168173ffffffffffffffffffffffffffffffffffffffff1614156105be576040517f08c379a00000000000000000000000000000000000000000000000000000000081526004016105b5906109f9565b60405180910390fd5b600260008273ffffffffffffffffffffffffffffffffffffffff1673ffffffffffffffffffffffffffffffffffffffff16815260200190815260200160002060009054906101000a900460ff161561064b576040517f08c379a000000000000000000000000000000000000000000000000000000000815260040161064290610b34565b60405180910390fd5b6001600260008373ffffffffffffffffffffffffffffffffffffffff1673ffffffffffffffffffffffffffffffffffffffff16815260200190815260200160002060006101000a81548160ff02191690831515021790555060018060008282546106b59190610b54565b925050819055506106c46107c6565b7fac1e9ef41b54c676ccf449d83ae6f2624bcdce8f5b93a6b48ce95874c332693d816040516106f391906108bc565b60405180910390a150565b60015481565b60008054906101000a900473ffffffffffffffffffffffffffffffffffffffff1681565b60008054906101000a900473ffffffffffffffffffffffffffffffffffffffff1673ffffffffffffffffffffffffffffffffffffffff163373ffffffffffffffffffffffffffffffffffffffff16146107b6576040517f08c379a00000000000000000000000000000000000000000000000000000000081526004016107ad9061098d565b60405180910390fd5b8060048190555050565b60035481565b600a60066001546107d79190610baa565b6107e19190610c33565b600381905550565b600080fd5b600073ffffffffffffffffffffffffffffffffffffffff82169050919050565b6000610819826107ee565b9050919050565b6108298161080e565b811461083457600080fd5b50565b60008135905061084681610820565b92915050565b600060208284031215610862576108616107e9565b5b600061087084828501610837565b91505092915050565b6000819050919050565b61088c81610879565b82525050565b60006020820190506108a76000830184610883565b92915050565b6108b68161080e565b82525050565b60006020820190506108d160008301846108ad565b92915050565b6108e081610879565b81146108eb57600080fd5b50565b6000813590506108fd816108d7565b92915050565b600060208284031215610919576109186107e9565b5b6000610927848285016108ee565b91505092915050565b600082825260208201905092915050565b7f4f6e6c7920417574686f72697479000000000000000000000000000000000000600082015250565b6000610977600e83610930565b915061098282610941565b602082019050919050565b600060208201905081810360008301526109a68161096a565b9050919050565b7f496e76616c696420416464726573730000000000000000000000000000000000600082015250565b60006109e3600f83610930565b91506109ee826109ad565b602082019050919050565b60006020820190508181036000830152610a12816109d6565b9050919050565b7f4e6f7420616e204f776e65720000000000000000000000000000000000000000600082015250565b6000610a4f600c83610930565b9150610a5a82610a19565b602082019050919050565b60006020820190508181036000830152610a7e81610a42565b9050919050565b7f4e487b7100000000000000000000000000000000000000000000000000000000600052601160045260246000fd5b6000610abf82610879565b9150610aca83610879565b925082821015610add57610adc610a85565b5b828203905092915050565b7f416c72656164792061204f776e65720000000000000000000000000000000000600082015250565b6000610b1e600f83610930565b9150610b2982610ae8565b602082019050919050565b60006020820190508181036000830152610b4d81610b11565b9050919050565b6000610b5f82610879565b9150610b6a83610879565b9250827fffffffffffffffffffffffffffffffffffffffffffffffffffffffffffffffff03821115610b9f57610b9e610a85565b5b828201905092915050565b6000610bb582610879565b9150610bc083610879565b9250817fffffffffffffffffffffffffffffffffffffffffffffffffffffffffffffffff0483118215151615610bf957610bf8610a85565b5b828202905092915050565b7f4e487b7100000000000000000000000000000000000000000000000000000000600052601260045260246000fd5b6000610c3e82610879565b9150610c4983610879565b925082610c5957610c58610c04565b5b82820490509291505056fea2646970667358221220980ba0af292ece2d36faaf5752d0ea83cd7ed67dd6832766d87b4603edcc66a464736f6c634300080a0033",
  "immutableReferences": {},
  "source": "// SPDX-License-Identifier: MIT\npragma solidity ^0.8.10;\n\ncontract WalletAuthority {\n    event TransferAuthority(address newAuthority);\n    event AddOwner(address newOwner);\n    event RemoveOwner(address owner);\n\n    address public walletAuthority;\n    uint256 public numberOfOwners;\n    mapping(address => bool) isOwner;\n    uint256 public confirmationsRequired;\n    uint256 public maxBlockLength;\n\n    modifier onlyAuthority() {\n        require(msg.sender == walletAuthority, \"Only Authority\");\n        _;\n    }\n\n    function transferAuthority(address _newAuthority) public onlyAuthority {\n        walletAuthority = _newAuthority;\n        emit TransferAuthority(_newAuthority);\n    }\n\n    function addOwner(address _newOwner) public onlyAuthority {\n        require(_newOwner != address(0), \"Invalid Address\");\n        require(!isOwner[_newOwner], \"Already a Owner\");\n        isOwner[_newOwner] = true;\n        numberOfOwners += 1;\n        newConfirmationsRequired();\n        emit AddOwner(_newOwner);\n    }\n\n    function setMaxBlockLength(uint256 _newBlockLength) public onlyAuthority {\n        maxBlockLength = _newBlockLength;\n    }\n\n    function removeOwner(address _owner) public onlyAuthority {\n        require(_owner != address(0), \"Invalid Address\");\n        require(isOwner[_owner], \"Not an Owner\");\n        isOwner[_owner] = false;\n        numberOfOwners -= 1;\n        newConfirmationsRequired();\n        emit RemoveOwner(_owner);\n    }\n\n    function newConfirmationsRequired() internal {\n        confirmationsRequired = uint256((numberOfOwners * 6) / 10);\n    }\n}\n",
  "sourcePath": "/home/ashish/projects/multisig_react/contracts/WalletAuthority.sol",
  "compiler": {
    "name": "solc",
    "version": "0.8.10+commit.fc410830.Emscripten.clang"
  },
  "schemaVersion": "3.4.4",
  "updatedAt": "2022-01-22T18:10:29.473Z",
  "devdoc": {
    "kind": "dev",
    "methods": {},
    "version": 1
  },
  "userdoc": {
    "kind": "user",
    "methods": {},
    "version": 1
  }
}